:10044100EF7802CEC313CE13D8F9FFEF1FAC0670BD
:0A045100011E4C6004000080F2223E
:10042600AB07AA0675C134EB1BAE0270011A4E600B
:0B043600097FE87E0312044180ED22E4
:0A0483000822010203040506070821
:0804940012035C1202E080F883
:1004710077145B5D3C6D6F547F7D0E0D0B070102A0
:0204810004086D
:06048D00042A0000000A31
:10045B007D007BFF7E007F040200D3AE14AF157CC2
:06046B00007D0A0200F909
:040184008E148F1531
:1001880078187C007D007BFF7A0479717E007F0AF5
:100198001200D37B04782AE4F608DBFC752D0AC329
:1001A800E51464809480500E752B20C3E49515F5F2
:1001B80015E49514F514D3E5159463E51464809457
:1001C80080400CE4F52AF52BF52C752D2A805A125F
:1001D80004668D1612046612046A8D1774182517A2
:1001E800F8E6FF74182516F8E6FEEF540325E02517
:1001F800E0FDEE54034D422AEE540C1313543FFD18
:10020800EF540C4D422BEE5430C4540FFDEF5430D4
:100218001313543F4D422CEE54C0C413135403FE21
:10022800EF54C0C4540F4E422DE4FB742A2BF8E659
:10023800FFE4FEFDEE25E0FEEF30E003430601EFAC
:0B024800C313FF0DBD06ED0BBB04E06F
:010253002288
:0402E0008E088F09EC
:1002E400780C7C007A04797B12045B78107C007AA9
:1002F40004797F12045B750B0AAF09AE08120184FE
:10030400AF0B150BEF6050E4F50AE50AC3940450F3
:10031400EF75B10FE4F5B2742A250AF8E6F5907486
:100324000C250AF8E6F5B17410250AF8E6F5B2AF23
:100334000A7401A807088002C333D8FCF4F5B07F1F
:10034400027E0012042663B0FF6390FF7F027E00EA
:07035400120426050A80B324
:01035B00227F
:1003FC00D2D730D724C2CD7F1C7E02120441D2CD7D
:10040C007F3C7E00120441A2CD7FF07E001204419D
:0A041C007FB47E0012044180D92253
:10039B00E4F50AF50BF509E50AC313F50AE50B13AA
:1003AB00F50BC2CD00D2CD0030CD03430B807F3C8B
:1003BB007E001204410509E509C3940840D9AF0B2F
:0103CB00220F
:0203CC008F0997
:1003CE00E4F50AE5095401F50BE509C313F509C275
:1003DE00CD00E50B24FF92CD7F3C7E00120441D26E
:0D03EE00CD00050AC3E50A6480948840D65E
:0103FB0022DF
:10035C001203FC7FCC1203CC7F441203CC30CDFDB6
:10036C001203FC7FCC1203CC7FBE1203CC12039B76
:10037C008F0812039B7E00EFC4F8540FC868FFEE81
:0E038C00C454F048FEE508C4540FF5084207BB
:01039A002240
:03000000020254A5
:0C025400787FE4F6D8FD75812D02029B36
:10000300E709F608DFFA8046E709F208DFFA803EDF
:1000130088828C83E709F0A3DFFA8032E309F608CC
:10002300DFFA8078E309F208DFFA807088828C8334
:10003300E309F0A3DFFA806489828A83E0A3F608E8
:10004300DFFA805889828A83E0A3F208DFFA804CC2
:1000530080D280FA80C680D4806980F28033801099
:1000630080A680EA809A80A880DA80E280CA803302
:1000730089828A83ECFAE493A3C8C582C8CCC5837A
:10008300CCF0A3C8C582C8CCC583CCDFE9DEE7804A
:100093000D89828A83E493A3F608DFF9ECFAA9F0C9
:1000A300EDFB2289828A83ECFAE0A3C8C582C8CC1F
:1000B300C583CCF0A3C8C582C8CCC583CCDFEADE38
:1000C300E880DB89828A83E493A3F208DFF980CC9A
:1000D30088F0EF60010E4E60C388F0ED2402B40493
:1000E3000050B9F582EB2402B4040050AF2323453A
:0600F3008223900053730C
:1000F900C2D5EC30E709B2D5E4C39DFDE49CFCEE22
:1001090030E715B2D5E4C39FFFE49EFE12012FC369
:10011900E49DFDE49CFC800312012F30D507C3E464
:060129009FFFE49EFE2290
:10026000020494E493A3F8E493A34003F68001F21C
:1002700008DFF48029E493A3F85407240CC8C3339F
:10028000C4540F4420C8834004F456800146F6DF6E
:10029000E4800B0102040810204080900483E47E77
:1002A000019360BCA3FF543F30E509541FFEE49363
:1002B000A360010ECF54C025E060A840B8E493A32A
:1002C000FAE493A3F8E493A3C8C582C8CAC583CA55
:1002D000F0A3C8C582C8CAC583CADFE9DEE780BE0D
:010493000068
:10012F00BC000BBE0029EF8DF084FFADF022E4CCB4
:10013F00F875F008EF2FFFEE33FEEC33FCEE9DEC7D
:10014F00984005FCEE9DFE0FD5F0E9E4CEFD22EDC3
:10015F00F8F5F0EE8420D21CFEADF075F008EF2F0D
:10016F00FFED33FD4007985006D5F0F222C398FDFE
:05017F000FD5F0EA229B
:00000001FF
