:10041E00EF7802CEC313CE13D8F9FFEF1FAC0670E0
:0A042E00011E4C6004000080F22261
:10040300AB07AA0675C134EB1BAE0270011A4E602E
:0B041300097FE87E0312041E80ED222A
:0A0460000824010203040506070842
:080471001203391202BD80F8EC
:10044E0077145B5D3C6D6F547F7D0E0D0B070102C3
:02045E00040890
:06046A00042C0000000A52
:100438007D007BFF7E007F040200D3AE16AF177CE1
:06044800007D0A0200F92C
:040184008E168F172D
:10018800781A7C007D007BFF7A04794E7E007F0A16
:100198001200D37F04782CE4F608DFFC752F0AC31D
:1001A800E51664809480500E752D20C3E49517F5EC
:1001B80017E49516F516D3E5179463E5166480944D
:1001C80080400BE4F52CF52DF52E752F2A2212040C
:1001D800438D181204431204478D19741A2519F80F
:1001E800E6FF741A2518F8E6FEEF540325E025E02B
:1001F800FDEE54034D422CEE540C1313543FFDEF07
:10020800540C4D422DEE5430C4540FFDEF543013AE
:1002180013543F4D422EEE54C0C413135403FEEF43
:0802280054C0C4540F4E422FD4
:0102300022AB
:0402BD008E0A8F0B0B
:1002C100780E7C007A04795812043878127C007A0E
:1002D10004795C120438750D0AAF0BAE0A12018461
:1002E100AF0D150DEF6050E4F50CE50CC39404500F
:1002F100EF75B10FE4F5B2742C250CF8E6F59074A6
:100301000E250CF8E6F5B17412250CF8E6F5B2AF3E
:100311000C7401A807088002C333D8FCF4F5B07F40
:10032100027E0012040363B0FF6390FF7F027E0030
:07033100120403050C80B368
:0103380022A2
:1003D900D2D730D724C2CD7F1C7E0212041ED2CDC3
:1003E9007F3C7E0012041EA2CD7FF07E0012041E07
:0A03F9007FB47E0012041E80D9229A
:10037800E4F50CF50DF50BE50CC313F50CE50D13C1
:10038800F50DC2CD00D2CD0030CD03430D807F3CAA
:100398007E0012041E050BE50BC3940840D9AF0D6F
:0103A8002232
:0203A9008F0BB8
:1003AB00E4F50CE50B5401F50DE50BC313F50BC28E
:1003BB00CD00E50D24FF92CD7F3C7E0012041ED2B2
:0D03CB00CD00050CC3E50C6480948840D67D
:0103D8002202
:100339001203D97FCC1203A97F441203A930CDFD42
:100349001203D97FCC1203A97FBE1203A912037825
:100359008F0A1203787E00EFC4F8540FC868FFEEC5
:0E036900C454F048FEE50AC4540FF50A4207DA
:010377002263
:03000000020231C8
:0C023100787FE4F6D8FD75812F0202787A
:10000300E709F608DFFA8046E709F208DFFA803EDF
:1000130088828C83E709F0A3DFFA8032E309F608CC
:10002300DFFA8078E309F208DFFA807088828C8334
:10003300E309F0A3DFFA806489828A83E0A3F608E8
:10004300DFFA805889828A83E0A3F208DFFA804CC2
:1000530080D280FA80C680D4806980F28033801099
:1000630080A680EA809A80A880DA80E280CA803302
:1000730089828A83ECFAE493A3C8C582C8CCC5837A
:10008300CCF0A3C8C582C8CCC583CCDFE9DEE7804A
:100093000D89828A83E493A3F608DFF9ECFAA9F0C9
:1000A300EDFB2289828A83ECFAE0A3C8C582C8CC1F
:1000B300C583CCF0A3C8C582C8CCC583CCDFEADE38
:1000C300E880DB89828A83E493A3F208DFF980CC9A
:1000D30088F0EF60010E4E60C388F0ED2402B40493
:1000E3000050B9F582EB2402B4040050AF2323453A
:0600F3008223900053730C
:1000F900C2D5EC30E709B2D5E4C39DFDE49CFCEE22
:1001090030E715B2D5E4C39FFFE49EFE12012FC369
:10011900E49DFDE49CFC800312012F30D507C3E464
:060129009FFFE49EFE2290
:10023D00020471E493A3F8E493A34003F68001F262
:10024D0008DFF48029E493A3F85407240CC8C333C2
:10025D00C4540F4420C8834004F456800146F6DF91
:10026D00E4800B0102040810204080900460E47EBD
:10027D00019360BCA3FF543F30E509541FFEE49386
:10028D00A360010ECF54C025E060A840B8E493A34D
:10029D00FAE493A3F8E493A3C8C582C8CAC583CA78
:1002AD00F0A3C8C582C8CAC583CADFE9DEE780BE30
:01047000008B
:10012F00BC000BBE0029EF8DF084FFADF022E4CCB4
:10013F00F875F008EF2FFFEE33FEEC33FCEE9DEC7D
:10014F00984005FCEE9DFE0FD5F0E9E4CEFD22EDC3
:10015F00F8F5F0EE8420D21CFEADF075F008EF2F0D
:10016F00FFED33FD4007985006D5F0F222C398FDFE
:05017F000FD5F0EA229B
:00000001FF
