:1003FD00D2D730D724C2CD7F1C7E02120442D2CD7B
:10040D007F3C7E00120442A2CD7FF07E001204429A
:0A041D007FB47E0012044280D92251
:10039C00E4F50AF50BF509E50AC313F50AE50B13A9
:1003AC00F50BC2CD00D2CD0030CD03430B807F3C8A
:1003BC007E001204420509E509C3940840D9AF0B2D
:0103CC00220E
:0203CD008F0996
:1003CF00E4F50AE5095401F50BE509C313F509C274
:1003DF00CD00E50B24FF92CD7F3C7E00120442D26C
:0D03EF00CD00050AC3E50A6480948840D65D
:0103FC0022DE
:10035D001203FD7FCC1203CD7F441203CD30CDFDB2
:10036D001203FD7FCC1203CD7FBE1203CD12039C71
:10037D008F0812039C7E00EFC4F8540FC868FFEE7F
:0E038D00C454F048FEE508C4540FF5084207BA
:01039B00223F
:10044200EF7802CEC313CE13D8F9FFEF1FAC0670BC
:0A045200011E4C6004000080F2223D
:10042700AB07AA0675C134EB1BAE0270011A4E600A
:0B043700097FE87E0312044280ED22E2
:10045C0077145B5D3C6D6F547F7D0E0D0B070102B5
:02046C00040882
:06046E00042D0000000A4D
:040184008E148F1531
:10018800781B7C007D007BFF7A04795C7E007F0A07
:100198001200D37F04782DE4F608DFFC75300AC31B
:1001A800E51464809480500E752E20C3E49515F5EF
:1001B80015E49514F514D3E5159463E51464809457
:1001C80080400BE4F52DF52EF52F75302A22AE145C
:1001D800AF157C007D0A1200F98D16AE14AF157CA0
:1001E800007D0A1200F97C007D0A1200F98D17744F
:1001F8001B2517F8E6FF741B2516F8E6FEEF5403D7
:1002080025E025E0FDEE54034D422DEE540C13136A
:10021800543FFDEF540C4D422EEE5430C4540FFDA4
:10022800EF54301313543F4D422FEE54C0C41313F0
:0C0238005403FEEF54C0C4540F4E42307B
:010244002297
:040245008E088F0987
:10024900780C7C007D007BFF7A0479667E007F0450
:100259001200D378107C007D007BFF7A04796A7ED6
:10026900007F041200D3750B0AAF09AE081201848E
:10027900AF0B150BEF6050E4F50AE50AC39404507F
:10028900EF75B10FE4F5B2742D250AF8E6F590740F
:100299000C250AF8E6F5B17410250AF8E6F5B2AFAF
:1002A9000A7401A807088002C333D8FCF4F5B07FAB
:1002B900027E0012042763B0FF6390FF7F027E0075
:0702C900120427050A80B3AF
:0102D000220B
:0A047400082501020304050607082D
:08047F0012035D12024580F832
:030000000202D128
:0C02D100787FE4F6D8FD75813002031838
:10000300E709F608DFFA8046E709F208DFFA803EDF
:1000130088828C83E709F0A3DFFA8032E309F608CC
:10002300DFFA8078E309F208DFFA807088828C8334
:10003300E309F0A3DFFA806489828A83E0A3F608E8
:10004300DFFA805889828A83E0A3F208DFFA804CC2
:1000530080D280FA80C680D4806980F28033801099
:1000630080A680EA809A80A880DA80E280CA803302
:1000730089828A83ECFAE493A3C8C582C8CCC5837A
:10008300CCF0A3C8C582C8CCC583CCDFE9DEE7804A
:100093000D89828A83E493A3F608DFF9ECFAA9F0C9
:1000A300EDFB2289828A83ECFAE0A3C8C582C8CC1F
:1000B300C583CCF0A3C8C582C8CCC583CCDFEADE38
:1000C300E880DB89828A83E493A3F208DFF980CC9A
:1000D30088F0EF60010E4E60C388F0ED2402B40493
:1000E3000050B9F582EB2402B4040050AF2323453A
:0600F3008223900053730C
:1000F900C2D5EC30E709B2D5E4C39DFDE49CFCEE22
:1001090030E715B2D5E4C39FFFE49EFE12012FC369
:10011900E49DFDE49CFC800312012F30D507C3E464
:060129009FFFE49EFE2290
:1002DD0002047FE493A3F8E493A34003F68001F2B4
:1002ED0008DFF48029E493A3F85407240CC8C33322
:1002FD00C4540F4420C8834004F456800146F6DFF1
:10030D00E4800B010204081020408090046EE47E0E
:10031D00019360BCA3FF543F30E509541FFEE493E5
:10032D00A360010ECF54C025E060A840B8E493A3AC
:10033D00FAE493A3F8E493A3C8C582C8CAC583CAD7
:10034D00F0A3C8C582C8CAC583CADFE9DEE780BE8F
:01047E00007D
:10012F00BC000BBE0029EF8DF084FFADF022E4CCB4
:10013F00F875F008EF2FFFEE33FEEC33FCEE9DEC7D
:10014F00984005FCEE9DFE0FD5F0E9E4CEFD22EDC3
:10015F00F8F5F0EE8420D21CFEADF075F008EF2F0D
:10016F00FFED33FD4007985006D5F0F222C398FDFE
:05017F000FD5F0EA229B
:00000001FF
