:10042600D2D730D724C2CD7F1C7E0212046BD2CD28
:100436007F3C7E0012046BA2CD7FF07E0012046B1F
:0A0446007FB47E0012046B80D922FF
:1003C500E4F523F524F522E523C313F523E52413EA
:1003D500F524C2CD00D2CD0030CD034324807F3C2F
:1003E5007E0012046B0522E522C3940840D9AF2490
:0103F50022E5
:0203F6008F2254
:1003F800E4F523E5225401F524E522C313F522C2CE
:10040800CD00E52424FF92CD7F3C7E0012046BD200
:0D041800CD000523C3E5236480948840D601
:0104250022B4
:100386001204267FCC1203F67F441203F630CDFD0D
:100396001204267FCC1203F67FBE1203F61203C5A3
:1003A6008F211203C57E00EFC4F8540FC868FFEE14
:0E03B600C454F048FEE521C4540FF52142075F
:0103C4002216
:10046B00EF7802CEC313CE13D8F9FFEF1FAC067093
:0A047B00011E4C6004000080F22214
:10045000AB07AA0675C134EB1BAE0270011A4E60E1
:0B046000097FE87E0312046B80ED2290
:100485003F065B4F666D7D077F6F777C395E7971BF
:080495000E0D0B070102040823
:0604A50004080A0000003B
:040184008E2D8F2EFF
:10018800D20078317C007D007BFF7A0479857E007F
:100198007F101200D3C3E52D648094805010750A37
:1001A80040C200C3E4952EF52EE4952DF52DD3E538
:1001B8002E9463E52D64809480400B75082AE4F53D
:1001C8000AF50BF50C22AE2DAF2E7C007D0A12002D
:1001D800F98D2FAE2DAF2E7C007D0A1200F97C0020
:1001E8007D0A1200F98D3074312530F8E6FF74313C
:1001F800252FF8E6FEEF540125E025E0FDEE540139
:100208004D4208EE5402C313FDEE5440C413540784
:100218004DFDEF540225E0FCEF5440131313541F17
:100228004C4D4209EE54041313543FFDEE5420C4C0
:10023800540F4DFDEF54201313543FFCEF54044C5E
:100248004D420AEE5408131313541FFDEE541013B5
:100258001313541F4DFEEF5408C313FDEF5410C37E
:05026800134D4E420B96
:01026D00226E
:04026E008E218F222C
:1002720078257C007D007BFF7A0479957E007F04DF
:100282001200D378297C007D007BFF7A0479997E65
:10029200007F041200D375240AAF22AE211201841A
:1002A200AF241524EF6050E4F523E523C3940450F2
:1002B200EF75B10FE4F5B274082523F8E6F59074F2
:1002C200252523F8E6F5B174292523F8E6F5B2AF22
:1002D200237401A807088002C333D8FCF4F5B07F69
:1002E200027E0012045063B0FF6390FF7F027E0023
:0702F200120450052380B344
:0102F90022E2
:08049D0012038612026E80F8C2
:030000000202FAFF
:0C02FA00787FE4F6D8FD758140020341D6
:10000300E709F608DFFA8046E709F208DFFA803EDF
:1000130088828C83E709F0A3DFFA8032E309F608CC
:10002300DFFA8078E309F208DFFA807088828C8334
:10003300E309F0A3DFFA806489828A83E0A3F608E8
:10004300DFFA805889828A83E0A3F208DFFA804CC2
:1000530080D280FA80C680D4806980F28033801099
:1000630080A680EA809A80A880DA80E280CA803302
:1000730089828A83ECFAE493A3C8C582C8CCC5837A
:10008300CCF0A3C8C582C8CCC583CCDFE9DEE7804A
:100093000D89828A83E493A3F608DFF9ECFAA9F0C9
:1000A300EDFB2289828A83ECFAE0A3C8C582C8CC1F
:1000B300C583CCF0A3C8C582C8CCC583CCDFEADE38
:1000C300E880DB89828A83E493A3F208DFF980CC9A
:1000D30088F0EF60010E4E60C388F0ED2402B40493
:1000E3000050B9F582EB2402B4040050AF2323453A
:0600F3008223900053730C
:1000F900C2D5EC30E709B2D5E4C39DFDE49CFCEE22
:1001090030E715B2D5E4C39FFFE49EFE12012FC369
:10011900E49DFDE49CFC800312012F30D507C3E464
:060129009FFFE49EFE2290
:1003060002049DE493A3F8E493A34003F68001F26C
:1003160008DFF48029E493A3F85407240CC8C333F8
:10032600C4540F4420C8834004F456800146F6DFC7
:10033600E4800B01020408102040809004A5E47EAE
:10034600019360BCA3FF543F30E509541FFEE493BC
:10035600A360010ECF54C025E060A840B8E493A383
:10036600FAE493A3F8E493A3C8C582C8CAC583CAAE
:10037600F0A3C8C582C8CAC583CADFE9DEE780BE66
:0104AB000050
:10012F00BC000BBE0029EF8DF084FFADF022E4CCB4
:10013F00F875F008EF2FFFEE33FEEC33FCEE9DEC7D
:10014F00984005FCEE9DFE0FD5F0E9E4CEFD22EDC3
:10015F00F8F5F0EE8420D21CFEADF075F008EF2F0D
:10016F00FFED33FD4007985006D5F0F222C398FDFE
:05017F000FD5F0EA229B
:00000001FF
