:10044A00EF7802CEC313CE13D8F9FFEF1FAC0670B4
:0A045A00011E4C6004000080F22235
:10042F00AB07AA0675C134EB1BAE0270011A4E6002
:0B043F00097FE87E0312044A80ED22D2
:0A048C000823010203040506070817
:08049D001203651202E980F868
:10047A0077145B5D3C6D6F547F7D0E0D0B07010297
:02048A00040864
:06049600042B0000000A27
:100464007D007BFF7E007F040200D3AE14AF157CB9
:06047400007D0A0200F900
:040184008E148F1531
:1001880078197C007D007BFF7A04797A7E007F0AEB
:100198001200D37B04782BE4F608DBFC752E0AC327
:1001A800E51464809480500E752C20C3E49515F5F1
:1001B80015E49514F514D3E5159463E51464809457
:1001C80080400CE4F52BF52CF52D752E2A805A125B
:1001D800046F8D1612046F1204738D177419251786
:1001E800F8E6FF74192516F8E6FEEF540325E02516
:1001F800E0FDEE54034D422BEE540C1313543FFD17
:10020800EF540C4D422CEE5430C4540FFDEF5430D3
:100218001313543F4D422DEE54C0C413135403FE20
:10022800EF54C0C4540F4E422EE4FB742B2BF8E657
:10023800FFE4F518FEE51825E0F518EF30E0034374
:100248001801EFC313FF0EBE06EB742B2BF8A6188C
:040258000BBB04D701
:01025C00227F
:0402E9008E088F09E3
:1002ED00780C7C007A04798412046478107C007A8E
:1002FD00047988120464750B0AAF09AE08120184E3
:10030D00AF0B150BEF6050E4F50AE50AC3940450EA
:10031D00EF75B10FE4F5B2742B250AF8E6F590747C
:10032D000C250AF8E6F5B17410250AF8E6F5B2AF1A
:10033D000A7401A807088002C333D8FCF4F5B07F16
:10034D00027E0012042F63B0FF6390FF7F027E00D8
:07035D0012042F050A80B312
:010364002276
:10040500D2D730D724C2CD7F1C7E0212044AD2CD6A
:100415007F3C7E0012044AA2CD7FF07E0012044A82
:0A0425007FB47E0012044A80D92241
:1003A400E4F50AF50BF509E50AC313F50AE50B13A1
:1003B400F50BC2CD00D2CD0030CD03430B807F3C82
:1003C4007E0012044A0509E509C3940840D9AF0B1D
:0103D4002206
:0203D5008F098E
:1003D700E4F50AE5095401F50BE509C313F509C26C
:1003E700CD00E50B24FF92CD7F3C7E0012044AD25C
:0D03F700CD00050AC3E50A6480948840D655
:0104040022D5
:100365001204057FCC1203D57F441203D530CDFD91
:100375001204057FCC1203D57FBE1203D51203A448
:100385008F081203A47E00EFC4F8540FC868FFEE6F
:0E039500C454F048FEE508C4540FF5084207B2
:0103A3002237
:0300000002025D9C
:0C025D00787FE4F6D8FD75812E0202A423
:10000300E709F608DFFA8046E709F208DFFA803EDF
:1000130088828C83E709F0A3DFFA8032E309F608CC
:10002300DFFA8078E309F208DFFA807088828C8334
:10003300E309F0A3DFFA806489828A83E0A3F608E8
:10004300DFFA805889828A83E0A3F208DFFA804CC2
:1000530080D280FA80C680D4806980F28033801099
:1000630080A680EA809A80A880DA80E280CA803302
:1000730089828A83ECFAE493A3C8C582C8CCC5837A
:10008300CCF0A3C8C582C8CCC583CCDFE9DEE7804A
:100093000D89828A83E493A3F608DFF9ECFAA9F0C9
:1000A300EDFB2289828A83ECFAE0A3C8C582C8CC1F
:1000B300C583CCF0A3C8C582C8CCC583CCDFEADE38
:1000C300E880DB89828A83E493A3F208DFF980CC9A
:1000D30088F0EF60010E4E60C388F0ED2402B40493
:1000E3000050B9F582EB2402B4040050AF2323453A
:0600F3008223900053730C
:1000F900C2D5EC30E709B2D5E4C39DFDE49CFCEE22
:1001090030E715B2D5E4C39FFFE49EFE12012FC369
:10011900E49DFDE49CFC800312012F30D507C3E464
:060129009FFFE49EFE2290
:1002690002049DE493A3F8E493A34003F68001F20A
:1002790008DFF48029E493A3F85407240CC8C33396
:10028900C4540F4420C8834004F456800146F6DF65
:10029900E4800B010204081020408090048CE47E65
:1002A900019360BCA3FF543F30E509541FFEE4935A
:1002B900A360010ECF54C025E060A840B8E493A321
:1002C900FAE493A3F8E493A3C8C582C8CAC583CA4C
:1002D900F0A3C8C582C8CAC583CADFE9DEE780BE04
:01049C00005F
:10012F00BC000BBE0029EF8DF084FFADF022E4CCB4
:10013F00F875F008EF2FFFEE33FEEC33FCEE9DEC7D
:10014F00984005FCEE9DFE0FD5F0E9E4CEFD22EDC3
:10015F00F8F5F0EE8420D21CFEADF075F008EF2F0D
:10016F00FFED33FD4007985006D5F0F222C398FDFE
:05017F000FD5F0EA229B
:00000001FF
